{
  "_format": "hh-sol-artifact-1",
  "contractName": "NFT",
  "sourceName": "contracts/nft.sol",
  "abi": [
    {
      "inputs": [],
      "stateMutability": "nonpayable",
      "type": "constructor"
    },
    {
      "anonymous": false,
      "inputs": [
        {
          "indexed": true,
          "internalType": "address",
          "name": "owner",
          "type": "address"
        },
        {
          "indexed": true,
          "internalType": "address",
          "name": "approved",
          "type": "address"
        },
        {
          "indexed": true,
          "internalType": "uint256",
          "name": "tokenId",
          "type": "uint256"
        }
      ],
      "name": "Approval",
      "type": "event"
    },
    {
      "anonymous": false,
      "inputs": [
        {
          "indexed": true,
          "internalType": "address",
          "name": "owner",
          "type": "address"
        },
        {
          "indexed": true,
          "internalType": "address",
          "name": "operator",
          "type": "address"
        },
        {
          "indexed": false,
          "internalType": "bool",
          "name": "approved",
          "type": "bool"
        }
      ],
      "name": "ApprovalForAll",
      "type": "event"
    },
    {
      "anonymous": false,
      "inputs": [
        {
          "indexed": true,
          "internalType": "address",
          "name": "from",
          "type": "address"
        },
        {
          "indexed": true,
          "internalType": "address",
          "name": "to",
          "type": "address"
        },
        {
          "indexed": true,
          "internalType": "uint256",
          "name": "tokenId",
          "type": "uint256"
        }
      ],
      "name": "Transfer",
      "type": "event"
    },
    {
      "inputs": [
        {
          "internalType": "address",
          "name": "to",
          "type": "address"
        },
        {
          "internalType": "uint256",
          "name": "tokenId",
          "type": "uint256"
        }
      ],
      "name": "approve",
      "outputs": [],
      "stateMutability": "nonpayable",
      "type": "function"
    },
    {
      "inputs": [
        {
          "internalType": "address",
          "name": "owner",
          "type": "address"
        }
      ],
      "name": "balanceOf",
      "outputs": [
        {
          "internalType": "uint256",
          "name": "",
          "type": "uint256"
        }
      ],
      "stateMutability": "view",
      "type": "function"
    },
    {
      "inputs": [
        {
          "internalType": "uint256",
          "name": "tokenId",
          "type": "uint256"
        }
      ],
      "name": "getApproved",
      "outputs": [
        {
          "internalType": "address",
          "name": "",
          "type": "address"
        }
      ],
      "stateMutability": "view",
      "type": "function"
    },
    {
      "inputs": [
        {
          "internalType": "address",
          "name": "owner",
          "type": "address"
        },
        {
          "internalType": "address",
          "name": "operator",
          "type": "address"
        }
      ],
      "name": "isApprovedForAll",
      "outputs": [
        {
          "internalType": "bool",
          "name": "",
          "type": "bool"
        }
      ],
      "stateMutability": "view",
      "type": "function"
    },
    {
      "inputs": [
        {
          "internalType": "string",
          "name": "_tokenURI",
          "type": "string"
        }
      ],
      "name": "mint",
      "outputs": [
        {
          "internalType": "uint256",
          "name": "",
          "type": "uint256"
        }
      ],
      "stateMutability": "nonpayable",
      "type": "function"
    },
    {
      "inputs": [],
      "name": "name",
      "outputs": [
        {
          "internalType": "string",
          "name": "",
          "type": "string"
        }
      ],
      "stateMutability": "view",
      "type": "function"
    },
    {
      "inputs": [],
      "name": "owner",
      "outputs": [
        {
          "internalType": "address",
          "name": "",
          "type": "address"
        }
      ],
      "stateMutability": "view",
      "type": "function"
    },
    {
      "inputs": [
        {
          "internalType": "uint256",
          "name": "tokenId",
          "type": "uint256"
        }
      ],
      "name": "ownerOf",
      "outputs": [
        {
          "internalType": "address",
          "name": "",
          "type": "address"
        }
      ],
      "stateMutability": "view",
      "type": "function"
    },
    {
      "inputs": [
        {
          "internalType": "address",
          "name": "from",
          "type": "address"
        },
        {
          "internalType": "address",
          "name": "to",
          "type": "address"
        },
        {
          "internalType": "uint256",
          "name": "tokenId",
          "type": "uint256"
        }
      ],
      "name": "safeTransferFrom",
      "outputs": [],
      "stateMutability": "nonpayable",
      "type": "function"
    },
    {
      "inputs": [
        {
          "internalType": "address",
          "name": "from",
          "type": "address"
        },
        {
          "internalType": "address",
          "name": "to",
          "type": "address"
        },
        {
          "internalType": "uint256",
          "name": "tokenId",
          "type": "uint256"
        },
        {
          "internalType": "bytes",
          "name": "data",
          "type": "bytes"
        }
      ],
      "name": "safeTransferFrom",
      "outputs": [],
      "stateMutability": "nonpayable",
      "type": "function"
    },
    {
      "inputs": [
        {
          "internalType": "address",
          "name": "operator",
          "type": "address"
        },
        {
          "internalType": "bool",
          "name": "approved",
          "type": "bool"
        }
      ],
      "name": "setApprovalForAll",
      "outputs": [],
      "stateMutability": "nonpayable",
      "type": "function"
    },
    {
      "inputs": [
        {
          "internalType": "bytes4",
          "name": "interfaceId",
          "type": "bytes4"
        }
      ],
      "name": "supportsInterface",
      "outputs": [
        {
          "internalType": "bool",
          "name": "",
          "type": "bool"
        }
      ],
      "stateMutability": "view",
      "type": "function"
    },
    {
      "inputs": [],
      "name": "symbol",
      "outputs": [
        {
          "internalType": "string",
          "name": "",
          "type": "string"
        }
      ],
      "stateMutability": "view",
      "type": "function"
    },
    {
      "inputs": [],
      "name": "tokenCount",
      "outputs": [
        {
          "internalType": "uint256",
          "name": "",
          "type": "uint256"
        }
      ],
      "stateMutability": "view",
      "type": "function"
    },
    {
      "inputs": [
        {
          "internalType": "uint256",
          "name": "tokenId",
          "type": "uint256"
        }
      ],
      "name": "tokenURI",
      "outputs": [
        {
          "internalType": "string",
          "name": "",
          "type": "string"
        }
      ],
      "stateMutability": "view",
      "type": "function"
    },
    {
      "inputs": [],
      "name": "totalSupply",
      "outputs": [
        {
          "internalType": "uint256",
          "name": "",
          "type": "uint256"
        }
      ],
      "stateMutability": "view",
      "type": "function"
    },
    {
      "inputs": [
        {
          "internalType": "address",
          "name": "from",
          "type": "address"
        },
        {
          "internalType": "address",
          "name": "to",
          "type": "address"
        },
        {
          "internalType": "uint256",
          "name": "tokenId",
          "type": "uint256"
        }
      ],
      "name": "transferFrom",
      "outputs": [],
      "stateMutability": "nonpayable",
      "type": "function"
    }
  ],
  "bytecode": "0x60806040526127106008553480156200001757600080fd5b506040518060400160405280600881526020017f44417070204e46540000000000000000000000000000000000000000000000008152506040518060400160405280600481526020017f444150500000000000000000000000000000000000000000000000000000000081525081600090805190602001906200009c92919062000145565b508060019080519060200190620000b592919062000145565b505050600854600a60003373ffffffffffffffffffffffffffffffffffffffff1673ffffffffffffffffffffffffffffffffffffffff1681526020019081526020016000208190555033600960006101000a81548173ffffffffffffffffffffffffffffffffffffffff021916908373ffffffffffffffffffffffffffffffffffffffff1602179055506200025a565b828054620001539062000224565b90600052602060002090601f016020900481019282620001775760008555620001c3565b82601f106200019257805160ff1916838001178555620001c3565b82800160010185558215620001c3579182015b82811115620001c2578251825591602001919060010190620001a5565b5b509050620001d29190620001d6565b5090565b5b80821115620001f1576000816000905550600101620001d7565b5090565b7f4e487b7100000000000000000000000000000000000000000000000000000000600052602260045260246000fd5b600060028204905060018216806200023d57607f821691505b60208210811415620002545762000253620001f5565b5b50919050565b61299b806200026a6000396000f3fe608060405234801561001057600080fd5b506004361061010b5760003560e01c806370a08231116100a2578063a22cb46511610071578063a22cb465146102ba578063b88d4fde146102d6578063c87b56dd146102f2578063d85d3d2714610322578063e985e9c5146103525761010b565b806370a08231146102305780638da5cb5b1461026057806395d89b411461027e5780639f181b5e1461029c5761010b565b806318160ddd116100de57806318160ddd146101aa57806323b872dd146101c857806342842e0e146101e45780636352211e146102005761010b565b806301ffc9a71461011057806306fdde0314610140578063081812fc1461015e578063095ea7b31461018e575b600080fd5b61012a6004803603810190610125919061197e565b610382565b60405161013791906119c6565b60405180910390f35b610148610464565b6040516101559190611a7a565b60405180910390f35b61017860048036038101906101739190611ad2565b6104f6565b6040516101859190611b40565b60405180910390f35b6101a860048036038101906101a39190611b87565b61053c565b005b6101b2610654565b6040516101bf9190611bd6565b60405180910390f35b6101e260048036038101906101dd9190611bf1565b61065a565b005b6101fe60048036038101906101f99190611bf1565b6106ba565b005b61021a60048036038101906102159190611ad2565b6106da565b6040516102279190611b40565b60405180910390f35b61024a60048036038101906102459190611c44565b61078c565b6040516102579190611bd6565b60405180910390f35b610268610844565b6040516102759190611b40565b60405180910390f35b61028661086a565b6040516102939190611a7a565b60405180910390f35b6102a46108fc565b6040516102b19190611bd6565b60405180910390f35b6102d460048036038101906102cf9190611c9d565b610902565b005b6102f060048036038101906102eb9190611e12565b610918565b005b61030c60048036038101906103079190611ad2565b61097a565b6040516103199190611a7a565b60405180910390f35b61033c60048036038101906103379190611f36565b610a8d565b6040516103499190611bd6565b60405180910390f35b61036c60048036038101906103679190611f7f565b610ac9565b60405161037991906119c6565b60405180910390f35b60007f80ac58cd000000000000000000000000000000000000000000000000000000007bffffffffffffffffffffffffffffffffffffffffffffffffffffffff1916827bffffffffffffffffffffffffffffffffffffffffffffffffffffffff1916148061044d57507f5b5e139f000000000000000000000000000000000000000000000000000000007bffffffffffffffffffffffffffffffffffffffffffffffffffffffff1916827bffffffffffffffffffffffffffffffffffffffffffffffffffffffff1916145b8061045d575061045c82610b5d565b5b9050919050565b60606000805461047390611fee565b80601f016020809104026020016040519081016040528092919081815260200182805461049f90611fee565b80156104ec5780601f106104c1576101008083540402835291602001916104ec565b820191906000526020600020905b8154815290600101906020018083116104cf57829003601f168201915b5050505050905090565b600061050182610bc7565b6004600083815260200190815260200160002060009054906101000a900473ffffffffffffffffffffffffffffffffffffffff169050919050565b6000610547826106da565b90508073ffffffffffffffffffffffffffffffffffffffff168373ffffffffffffffffffffffffffffffffffffffff1614156105b8576040517f08c379a00000000000000000000000000000000000000000000000000000000081526004016105af90612092565b60405180910390fd5b8073ffffffffffffffffffffffffffffffffffffffff166105d7610c12565b73ffffffffffffffffffffffffffffffffffffffff161480610606575061060581610600610c12565b610ac9565b5b610645576040517f08c379a000000000000000000000000000000000000000000000000000000000815260040161063c90612124565b60405180910390fd5b61064f8383610c1a565b505050565b60085481565b61066b610665610c12565b82610cd3565b6106aa576040517f08c379a00000000000000000000000000000000000000000000000000000000081526004016106a1906121b6565b60405180910390fd5b6106b5838383610d68565b505050565b6106d583838360405180602001604052806000815250610918565b505050565b6000806002600084815260200190815260200160002060009054906101000a900473ffffffffffffffffffffffffffffffffffffffff169050600073ffffffffffffffffffffffffffffffffffffffff168173ffffffffffffffffffffffffffffffffffffffff161415610783576040517f08c379a000000000000000000000000000000000000000000000000000000000815260040161077a90612222565b60405180910390fd5b80915050919050565b60008073ffffffffffffffffffffffffffffffffffffffff168273ffffffffffffffffffffffffffffffffffffffff1614156107fd576040517f08c379a00000000000000000000000000000000000000000000000000000000081526004016107f4906122b4565b60405180910390fd5b600360008373ffffffffffffffffffffffffffffffffffffffff1673ffffffffffffffffffffffffffffffffffffffff168152602001908152602001600020549050919050565b600960009054906101000a900473ffffffffffffffffffffffffffffffffffffffff1681565b60606001805461087990611fee565b80601f01602080910402602001604051908101604052809291908181526020018280546108a590611fee565b80156108f25780601f106108c7576101008083540402835291602001916108f2565b820191906000526020600020905b8154815290600101906020018083116108d557829003601f168201915b5050505050905090565b60075481565b61091461090d610c12565b8383610fcf565b5050565b610929610923610c12565b83610cd3565b610968576040517f08c379a000000000000000000000000000000000000000000000000000000000815260040161095f906121b6565b60405180910390fd5b6109748484848461113c565b50505050565b606061098582610bc7565b60006006600084815260200190815260200160002080546109a590611fee565b80601f01602080910402602001604051908101604052809291908181526020018280546109d190611fee565b8015610a1e5780601f106109f357610100808354040283529160200191610a1e565b820191906000526020600020905b815481529060010190602001808311610a0157829003601f168201915b505050505090506000610a2f611198565b9050600081511415610a45578192505050610a88565b600082511115610a7a578082604051602001610a62929190612310565b60405160208183030381529060405292505050610a88565b610a83846111af565b925050505b919050565b600060076000815480929190610aa290612363565b9190505550610ab333600754611217565b610abf60075483611235565b6007549050919050565b6000600560008473ffffffffffffffffffffffffffffffffffffffff1673ffffffffffffffffffffffffffffffffffffffff16815260200190815260200160002060008373ffffffffffffffffffffffffffffffffffffffff1673ffffffffffffffffffffffffffffffffffffffff16815260200190815260200160002060009054906101000a900460ff16905092915050565b60007f01ffc9a7000000000000000000000000000000000000000000000000000000007bffffffffffffffffffffffffffffffffffffffffffffffffffffffff1916827bffffffffffffffffffffffffffffffffffffffffffffffffffffffff1916149050919050565b610bd0816112a9565b610c0f576040517f08c379a0000000000000000000000000000000000000000000000000000000008152600401610c0690612222565b60405180910390fd5b50565b600033905090565b816004600083815260200190815260200160002060006101000a81548173ffffffffffffffffffffffffffffffffffffffff021916908373ffffffffffffffffffffffffffffffffffffffff160217905550808273ffffffffffffffffffffffffffffffffffffffff16610c8d836106da565b73ffffffffffffffffffffffffffffffffffffffff167f8c5be1e5ebec7d5bd14f71427d1e84f3dd0314c0f7b2291e5b200ac8c7c3b92560405160405180910390a45050565b600080610cdf836106da565b90508073ffffffffffffffffffffffffffffffffffffffff168473ffffffffffffffffffffffffffffffffffffffff161480610d215750610d208185610ac9565b5b80610d5f57508373ffffffffffffffffffffffffffffffffffffffff16610d47846104f6565b73ffffffffffffffffffffffffffffffffffffffff16145b91505092915050565b8273ffffffffffffffffffffffffffffffffffffffff16610d88826106da565b73ffffffffffffffffffffffffffffffffffffffff1614610dde576040517f08c379a0000000000000000000000000000000000000000000000000000000008152600401610dd59061241e565b60405180910390fd5b600073ffffffffffffffffffffffffffffffffffffffff168273ffffffffffffffffffffffffffffffffffffffff161415610e4e576040517f08c379a0000000000000000000000000000000000000000000000000000000008152600401610e45906124b0565b60405180910390fd5b610e59838383611315565b610e64600082610c1a565b6001600360008573ffffffffffffffffffffffffffffffffffffffff1673ffffffffffffffffffffffffffffffffffffffff1681526020019081526020016000206000828254610eb491906124d0565b925050819055506001600360008473ffffffffffffffffffffffffffffffffffffffff1673ffffffffffffffffffffffffffffffffffffffff1681526020019081526020016000206000828254610f0b9190612504565b92505081905550816002600083815260200190815260200160002060006101000a81548173ffffffffffffffffffffffffffffffffffffffff021916908373ffffffffffffffffffffffffffffffffffffffff160217905550808273ffffffffffffffffffffffffffffffffffffffff168473ffffffffffffffffffffffffffffffffffffffff167fddf252ad1be2c89b69c2b068fc378daa952ba7f163c4a11628f55a4df523b3ef60405160405180910390a4610fca83838361131a565b505050565b8173ffffffffffffffffffffffffffffffffffffffff168373ffffffffffffffffffffffffffffffffffffffff16141561103e576040517f08c379a0000000000000000000000000000000000000000000000000000000008152600401611035906125a6565b60405180910390fd5b80600560008573ffffffffffffffffffffffffffffffffffffffff1673ffffffffffffffffffffffffffffffffffffffff16815260200190815260200160002060008473ffffffffffffffffffffffffffffffffffffffff1673ffffffffffffffffffffffffffffffffffffffff16815260200190815260200160002060006101000a81548160ff0219169083151502179055508173ffffffffffffffffffffffffffffffffffffffff168373ffffffffffffffffffffffffffffffffffffffff167f17307eab39ab6107e8899845ad3d59bd9653f200f220920489ca2b5937696c318360405161112f91906119c6565b60405180910390a3505050565b611147848484610d68565b6111538484848461131f565b611192576040517f08c379a000000000000000000000000000000000000000000000000000000000815260040161118990612638565b60405180910390fd5b50505050565b606060405180602001604052806000815250905090565b60606111ba82610bc7565b60006111c4611198565b905060008151116111e4576040518060200160405280600081525061120f565b806111ee846114b6565b6040516020016111ff929190612310565b6040516020818303038152906040525b915050919050565b611231828260405180602001604052806000815250611617565b5050565b61123e826112a9565b61127d576040517f08c379a0000000000000000000000000000000000000000000000000000000008152600401611274906126ca565b60405180910390fd5b806006600084815260200190815260200160002090805190602001906112a492919061186f565b505050565b60008073ffffffffffffffffffffffffffffffffffffffff166002600084815260200190815260200160002060009054906101000a900473ffffffffffffffffffffffffffffffffffffffff1673ffffffffffffffffffffffffffffffffffffffff1614159050919050565b505050565b505050565b60006113408473ffffffffffffffffffffffffffffffffffffffff16611672565b156114a9578373ffffffffffffffffffffffffffffffffffffffff1663150b7a02611369610c12565b8786866040518563ffffffff1660e01b815260040161138b949392919061273f565b602060405180830381600087803b1580156113a557600080fd5b505af19250505080156113d657506040513d601f19601f820116820180604052508101906113d391906127a0565b60015b611459573d8060008114611406576040519150601f19603f3d011682016040523d82523d6000602084013e61140b565b606091505b50600081511415611451576040517f08c379a000000000000000000000000000000000000000000000000000000000815260040161144890612638565b60405180910390fd5b805181602001fd5b63150b7a0260e01b7bffffffffffffffffffffffffffffffffffffffffffffffffffffffff1916817bffffffffffffffffffffffffffffffffffffffffffffffffffffffff1916149150506114ae565b600190505b949350505050565b606060008214156114fe576040518060400160405280600181526020017f30000000000000000000000000000000000000000000000000000000000000008152509050611612565b600082905060005b6000821461153057808061151990612363565b915050600a8261152991906127fc565b9150611506565b60008167ffffffffffffffff81111561154c5761154b611ce7565b5b6040519080825280601f01601f19166020018201604052801561157e5781602001600182028036833780820191505090505b5090505b6000851461160b5760018261159791906124d0565b9150600a856115a6919061282d565b60306115b29190612504565b60f81b8183815181106115c8576115c761285e565b5b60200101907effffffffffffffffffffffffffffffffffffffffffffffffffffffffffffff1916908160001a905350600a8561160491906127fc565b9450611582565b8093505050505b919050565b6116218383611695565b61162e600084848461131f565b61166d576040517f08c379a000000000000000000000000000000000000000000000000000000000815260040161166490612638565b60405180910390fd5b505050565b6000808273ffffffffffffffffffffffffffffffffffffffff163b119050919050565b600073ffffffffffffffffffffffffffffffffffffffff168273ffffffffffffffffffffffffffffffffffffffff161415611705576040517f08c379a00000000000000000000000000000000000000000000000000000000081526004016116fc906128d9565b60405180910390fd5b61170e816112a9565b1561174e576040517f08c379a000000000000000000000000000000000000000000000000000000000815260040161174590612945565b60405180910390fd5b61175a60008383611315565b6001600360008473ffffffffffffffffffffffffffffffffffffffff1673ffffffffffffffffffffffffffffffffffffffff16815260200190815260200160002060008282546117aa9190612504565b92505081905550816002600083815260200190815260200160002060006101000a81548173ffffffffffffffffffffffffffffffffffffffff021916908373ffffffffffffffffffffffffffffffffffffffff160217905550808273ffffffffffffffffffffffffffffffffffffffff16600073ffffffffffffffffffffffffffffffffffffffff167fddf252ad1be2c89b69c2b068fc378daa952ba7f163c4a11628f55a4df523b3ef60405160405180910390a461186b6000838361131a565b5050565b82805461187b90611fee565b90600052602060002090601f01602090048101928261189d57600085556118e4565b82601f106118b657805160ff19168380011785556118e4565b828001600101855582156118e4579182015b828111156118e35782518255916020019190600101906118c8565b5b5090506118f191906118f5565b5090565b5b8082111561190e5760008160009055506001016118f6565b5090565b6000604051905090565b600080fd5b600080fd5b60007fffffffff0000000000000000000000000000000000000000000000000000000082169050919050565b61195b81611926565b811461196657600080fd5b50565b60008135905061197881611952565b92915050565b6000602082840312156119945761199361191c565b5b60006119a284828501611969565b91505092915050565b60008115159050919050565b6119c0816119ab565b82525050565b60006020820190506119db60008301846119b7565b92915050565b600081519050919050565b600082825260208201905092915050565b60005b83811015611a1b578082015181840152602081019050611a00565b83811115611a2a576000848401525b50505050565b6000601f19601f8301169050919050565b6000611a4c826119e1565b611a5681856119ec565b9350611a668185602086016119fd565b611a6f81611a30565b840191505092915050565b60006020820190508181036000830152611a948184611a41565b905092915050565b6000819050919050565b611aaf81611a9c565b8114611aba57600080fd5b50565b600081359050611acc81611aa6565b92915050565b600060208284031215611ae857611ae761191c565b5b6000611af684828501611abd565b91505092915050565b600073ffffffffffffffffffffffffffffffffffffffff82169050919050565b6000611b2a82611aff565b9050919050565b611b3a81611b1f565b82525050565b6000602082019050611b556000830184611b31565b92915050565b611b6481611b1f565b8114611b6f57600080fd5b50565b600081359050611b8181611b5b565b92915050565b60008060408385031215611b9e57611b9d61191c565b5b6000611bac85828601611b72565b9250506020611bbd85828601611abd565b9150509250929050565b611bd081611a9c565b82525050565b6000602082019050611beb6000830184611bc7565b92915050565b600080600060608486031215611c0a57611c0961191c565b5b6000611c1886828701611b72565b9350506020611c2986828701611b72565b9250506040611c3a86828701611abd565b9150509250925092565b600060208284031215611c5a57611c5961191c565b5b6000611c6884828501611b72565b91505092915050565b611c7a816119ab565b8114611c8557600080fd5b50565b600081359050611c9781611c71565b92915050565b60008060408385031215611cb457611cb361191c565b5b6000611cc285828601611b72565b9250506020611cd385828601611c88565b9150509250929050565b600080fd5b600080fd5b7f4e487b7100000000000000000000000000000000000000000000000000000000600052604160045260246000fd5b611d1f82611a30565b810181811067ffffffffffffffff82111715611d3e57611d3d611ce7565b5b80604052505050565b6000611d51611912565b9050611d5d8282611d16565b919050565b600067ffffffffffffffff821115611d7d57611d7c611ce7565b5b611d8682611a30565b9050602081019050919050565b82818337600083830152505050565b6000611db5611db084611d62565b611d47565b905082815260208101848484011115611dd157611dd0611ce2565b5b611ddc848285611d93565b509392505050565b600082601f830112611df957611df8611cdd565b5b8135611e09848260208601611da2565b91505092915050565b60008060008060808587031215611e2c57611e2b61191c565b5b6000611e3a87828801611b72565b9450506020611e4b87828801611b72565b9350506040611e5c87828801611abd565b925050606085013567ffffffffffffffff811115611e7d57611e7c611921565b5b611e8987828801611de4565b91505092959194509250565b600067ffffffffffffffff821115611eb057611eaf611ce7565b5b611eb982611a30565b9050602081019050919050565b6000611ed9611ed484611e95565b611d47565b905082815260208101848484011115611ef557611ef4611ce2565b5b611f00848285611d93565b509392505050565b600082601f830112611f1d57611f1c611cdd565b5b8135611f2d848260208601611ec6565b91505092915050565b600060208284031215611f4c57611f4b61191c565b5b600082013567ffffffffffffffff811115611f6a57611f69611921565b5b611f7684828501611f08565b91505092915050565b60008060408385031215611f9657611f9561191c565b5b6000611fa485828601611b72565b9250506020611fb585828601611b72565b9150509250929050565b7f4e487b7100000000000000000000000000000000000000000000000000000000600052602260045260246000fd5b6000600282049050600182168061200657607f821691505b6020821081141561201a57612019611fbf565b5b50919050565b7f4552433732313a20617070726f76616c20746f2063757272656e74206f776e6560008201527f7200000000000000000000000000000000000000000000000000000000000000602082015250565b600061207c6021836119ec565b915061208782612020565b604082019050919050565b600060208201905081810360008301526120ab8161206f565b9050919050565b7f4552433732313a20617070726f76652063616c6c6572206973206e6f7420746f60008201527f6b656e206f776e6572206e6f7220617070726f76656420666f7220616c6c0000602082015250565b600061210e603e836119ec565b9150612119826120b2565b604082019050919050565b6000602082019050818103600083015261213d81612101565b9050919050565b7f4552433732313a2063616c6c6572206973206e6f7420746f6b656e206f776e6560008201527f72206e6f7220617070726f766564000000000000000000000000000000000000602082015250565b60006121a0602e836119ec565b91506121ab82612144565b604082019050919050565b600060208201905081810360008301526121cf81612193565b9050919050565b7f4552433732313a20696e76616c696420746f6b656e2049440000000000000000600082015250565b600061220c6018836119ec565b9150612217826121d6565b602082019050919050565b6000602082019050818103600083015261223b816121ff565b9050919050565b7f4552433732313a2061646472657373207a65726f206973206e6f74206120766160008201527f6c6964206f776e65720000000000000000000000000000000000000000000000602082015250565b600061229e6029836119ec565b91506122a982612242565b604082019050919050565b600060208201905081810360008301526122cd81612291565b9050919050565b600081905092915050565b60006122ea826119e1565b6122f481856122d4565b93506123048185602086016119fd565b80840191505092915050565b600061231c82856122df565b915061232882846122df565b91508190509392505050565b7f4e487b7100000000000000000000000000000000000000000000000000000000600052601160045260246000fd5b600061236e82611a9c565b91507fffffffffffffffffffffffffffffffffffffffffffffffffffffffffffffffff8214156123a1576123a0612334565b5b600182019050919050565b7f4552433732313a207472616e736665722066726f6d20696e636f72726563742060008201527f6f776e6572000000000000000000000000000000000000000000000000000000602082015250565b60006124086025836119ec565b9150612413826123ac565b604082019050919050565b60006020820190508181036000830152612437816123fb565b9050919050565b7f4552433732313a207472616e7366657220746f20746865207a65726f2061646460008201527f7265737300000000000000000000000000000000000000000000000000000000602082015250565b600061249a6024836119ec565b91506124a58261243e565b604082019050919050565b600060208201905081810360008301526124c98161248d565b9050919050565b60006124db82611a9c565b91506124e683611a9c565b9250828210156124f9576124f8612334565b5b828203905092915050565b600061250f82611a9c565b915061251a83611a9c565b9250827fffffffffffffffffffffffffffffffffffffffffffffffffffffffffffffffff0382111561254f5761254e612334565b5b828201905092915050565b7f4552433732313a20617070726f766520746f2063616c6c657200000000000000600082015250565b60006125906019836119ec565b915061259b8261255a565b602082019050919050565b600060208201905081810360008301526125bf81612583565b9050919050565b7f4552433732313a207472616e7366657220746f206e6f6e20455243373231526560008201527f63656976657220696d706c656d656e7465720000000000000000000000000000602082015250565b60006126226032836119ec565b915061262d826125c6565b604082019050919050565b6000602082019050818103600083015261265181612615565b9050919050565b7f45524337323155524953746f726167653a2055524920736574206f66206e6f6e60008201527f6578697374656e7420746f6b656e000000000000000000000000000000000000602082015250565b60006126b4602e836119ec565b91506126bf82612658565b604082019050919050565b600060208201905081810360008301526126e3816126a7565b9050919050565b600081519050919050565b600082825260208201905092915050565b6000612711826126ea565b61271b81856126f5565b935061272b8185602086016119fd565b61273481611a30565b840191505092915050565b60006080820190506127546000830187611b31565b6127616020830186611b31565b61276e6040830185611bc7565b81810360608301526127808184612706565b905095945050505050565b60008151905061279a81611952565b92915050565b6000602082840312156127b6576127b561191c565b5b60006127c48482850161278b565b91505092915050565b7f4e487b7100000000000000000000000000000000000000000000000000000000600052601260045260246000fd5b600061280782611a9c565b915061281283611a9c565b925082612822576128216127cd565b5b828204905092915050565b600061283882611a9c565b915061284383611a9c565b925082612853576128526127cd565b5b828206905092915050565b7f4e487b7100000000000000000000000000000000000000000000000000000000600052603260045260246000fd5b7f4552433732313a206d696e7420746f20746865207a65726f2061646472657373600082015250565b60006128c36020836119ec565b91506128ce8261288d565b602082019050919050565b600060208201905081810360008301526128f2816128b6565b9050919050565b7f4552433732313a20746f6b656e20616c7265616479206d696e74656400000000600082015250565b600061292f601c836119ec565b915061293a826128f9565b602082019050919050565b6000602082019050818103600083015261295e81612922565b905091905056fea2646970667358221220def640da564c6c67367d538e6323b7ba337095770ad0a2ad3f855db74cd447e264736f6c63430008090033",
  "linkReferences": {},
  "deployedLinkReferences": {}
}